{
  "_format": "hh-sol-artifact-1",
  "contractName": "BMBLANCE",
  "sourceName": "contracts/BMBLANCE.sol",
  "abi": [
    {
      "inputs": [
        {
          "internalType": "address",
          "name": "_donationWallet",
          "type": "address"
        },
        {
          "internalType": "address",
          "name": "_liquidityWallet",
          "type": "address"
        }
      ],
      "stateMutability": "nonpayable",
      "type": "constructor"
    },
    {
      "inputs": [
        {
          "internalType": "address",
          "name": "spender",
          "type": "address"
        },
        {
          "internalType": "uint256",
          "name": "allowance",
          "type": "uint256"
        },
        {
          "internalType": "uint256",
          "name": "needed",
          "type": "uint256"
        }
      ],
      "name": "ERC20InsufficientAllowance",
      "type": "error"
    },
    {
      "inputs": [
        {
          "internalType": "address",
          "name": "sender",
          "type": "address"
        },
        {
          "internalType": "uint256",
          "name": "balance",
          "type": "uint256"
        },
        {
          "internalType": "uint256",
          "name": "needed",
          "type": "uint256"
        }
      ],
      "name": "ERC20InsufficientBalance",
      "type": "error"
    },
    {
      "inputs": [
        {
          "internalType": "address",
          "name": "approver",
          "type": "address"
        }
      ],
      "name": "ERC20InvalidApprover",
      "type": "error"
    },
    {
      "inputs": [
        {
          "internalType": "address",
          "name": "receiver",
          "type": "address"
        }
      ],
      "name": "ERC20InvalidReceiver",
      "type": "error"
    },
    {
      "inputs": [
        {
          "internalType": "address",
          "name": "sender",
          "type": "address"
        }
      ],
      "name": "ERC20InvalidSender",
      "type": "error"
    },
    {
      "inputs": [
        {
          "internalType": "address",
          "name": "spender",
          "type": "address"
        }
      ],
      "name": "ERC20InvalidSpender",
      "type": "error"
    },
    {
      "inputs": [
        {
          "internalType": "address",
          "name": "owner",
          "type": "address"
        }
      ],
      "name": "OwnableInvalidOwner",
      "type": "error"
    },
    {
      "inputs": [
        {
          "internalType": "address",
          "name": "account",
          "type": "address"
        }
      ],
      "name": "OwnableUnauthorizedAccount",
      "type": "error"
    },
    {
      "inputs": [],
      "name": "ReentrancyGuardReentrantCall",
      "type": "error"
    },
    {
      "anonymous": false,
      "inputs": [
        {
          "indexed": true,
          "internalType": "address",
          "name": "owner",
          "type": "address"
        },
        {
          "indexed": true,
          "internalType": "address",
          "name": "spender",
          "type": "address"
        },
        {
          "indexed": false,
          "internalType": "uint256",
          "name": "value",
          "type": "uint256"
        }
      ],
      "name": "Approval",
      "type": "event"
    },
    {
      "anonymous": false,
      "inputs": [
        {
          "indexed": false,
          "internalType": "address",
          "name": "to",
          "type": "address"
        },
        {
          "indexed": false,
          "internalType": "uint256",
          "name": "amount",
          "type": "uint256"
        }
      ],
      "name": "DonationSent",
      "type": "event"
    },
    {
      "anonymous": false,
      "inputs": [
        {
          "indexed": false,
          "internalType": "address",
          "name": "newWallet",
          "type": "address"
        }
      ],
      "name": "DonationWalletUpdated",
      "type": "event"
    },
    {
      "anonymous": false,
      "inputs": [
        {
          "indexed": false,
          "internalType": "address",
          "name": "account",
          "type": "address"
        },
        {
          "indexed": false,
          "internalType": "bool",
          "name": "excluded",
          "type": "bool"
        }
      ],
      "name": "ExcludedFromFee",
      "type": "event"
    },
    {
      "anonymous": false,
      "inputs": [
        {
          "indexed": false,
          "internalType": "address",
          "name": "newWallet",
          "type": "address"
        }
      ],
      "name": "LiquidityWalletUpdated",
      "type": "event"
    },
    {
      "anonymous": false,
      "inputs": [
        {
          "indexed": true,
          "internalType": "address",
          "name": "previousOwner",
          "type": "address"
        },
        {
          "indexed": true,
          "internalType": "address",
          "name": "newOwner",
          "type": "address"
        }
      ],
      "name": "OwnershipTransferred",
      "type": "event"
    },
    {
      "anonymous": false,
      "inputs": [
        {
          "indexed": false,
          "internalType": "uint256",
          "name": "reflectionTax",
          "type": "uint256"
        },
        {
          "indexed": false,
          "internalType": "uint256",
          "name": "donationTax",
          "type": "uint256"
        },
        {
          "indexed": false,
          "internalType": "uint256",
          "name": "liquidityTax",
          "type": "uint256"
        }
      ],
      "name": "TaxesUpdated",
      "type": "event"
    },
    {
      "anonymous": false,
      "inputs": [
        {
          "indexed": true,
          "internalType": "address",
          "name": "from",
          "type": "address"
        },
        {
          "indexed": true,
          "internalType": "address",
          "name": "to",
          "type": "address"
        },
        {
          "indexed": false,
          "internalType": "uint256",
          "name": "value",
          "type": "uint256"
        }
      ],
      "name": "Transfer",
      "type": "event"
    },
    {
      "inputs": [],
      "name": "MAX_TAX",
      "outputs": [
        {
          "internalType": "uint256",
          "name": "",
          "type": "uint256"
        }
      ],
      "stateMutability": "view",
      "type": "function"
    },
    {
      "inputs": [
        {
          "internalType": "address",
          "name": "owner",
          "type": "address"
        },
        {
          "internalType": "address",
          "name": "spender",
          "type": "address"
        }
      ],
      "name": "allowance",
      "outputs": [
        {
          "internalType": "uint256",
          "name": "",
          "type": "uint256"
        }
      ],
      "stateMutability": "view",
      "type": "function"
    },
    {
      "inputs": [
        {
          "internalType": "address",
          "name": "spender",
          "type": "address"
        },
        {
          "internalType": "uint256",
          "name": "value",
          "type": "uint256"
        }
      ],
      "name": "approve",
      "outputs": [
        {
          "internalType": "bool",
          "name": "",
          "type": "bool"
        }
      ],
      "stateMutability": "nonpayable",
      "type": "function"
    },
    {
      "inputs": [
        {
          "internalType": "address",
          "name": "account",
          "type": "address"
        }
      ],
      "name": "balanceOf",
      "outputs": [
        {
          "internalType": "uint256",
          "name": "",
          "type": "uint256"
        }
      ],
      "stateMutability": "view",
      "type": "function"
    },
    {
      "inputs": [
        {
          "internalType": "uint256",
          "name": "amount",
          "type": "uint256"
        }
      ],
      "name": "burn",
      "outputs": [],
      "stateMutability": "nonpayable",
      "type": "function"
    },
    {
      "inputs": [],
      "name": "decimals",
      "outputs": [
        {
          "internalType": "uint8",
          "name": "",
          "type": "uint8"
        }
      ],
      "stateMutability": "view",
      "type": "function"
    },
    {
      "inputs": [],
      "name": "donationTax",
      "outputs": [
        {
          "internalType": "uint256",
          "name": "",
          "type": "uint256"
        }
      ],
      "stateMutability": "view",
      "type": "function"
    },
    {
      "inputs": [],
      "name": "donationWallet",
      "outputs": [
        {
          "internalType": "address",
          "name": "",
          "type": "address"
        }
      ],
      "stateMutability": "view",
      "type": "function"
    },
    {
      "inputs": [
        {
          "internalType": "address",
          "name": "account",
          "type": "address"
        }
      ],
      "name": "isExcludedFromFee",
      "outputs": [
        {
          "internalType": "bool",
          "name": "",
          "type": "bool"
        }
      ],
      "stateMutability": "view",
      "type": "function"
    },
    {
      "inputs": [],
      "name": "liquidityTax",
      "outputs": [
        {
          "internalType": "uint256",
          "name": "",
          "type": "uint256"
        }
      ],
      "stateMutability": "view",
      "type": "function"
    },
    {
      "inputs": [],
      "name": "liquidityWallet",
      "outputs": [
        {
          "internalType": "address",
          "name": "",
          "type": "address"
        }
      ],
      "stateMutability": "view",
      "type": "function"
    },
    {
      "inputs": [],
      "name": "name",
      "outputs": [
        {
          "internalType": "string",
          "name": "",
          "type": "string"
        }
      ],
      "stateMutability": "view",
      "type": "function"
    },
    {
      "inputs": [],
      "name": "owner",
      "outputs": [
        {
          "internalType": "address",
          "name": "",
          "type": "address"
        }
      ],
      "stateMutability": "view",
      "type": "function"
    },
    {
      "inputs": [],
      "name": "reflectionTax",
      "outputs": [
        {
          "internalType": "uint256",
          "name": "",
          "type": "uint256"
        }
      ],
      "stateMutability": "view",
      "type": "function"
    },
    {
      "inputs": [],
      "name": "renounceOwnership",
      "outputs": [],
      "stateMutability": "nonpayable",
      "type": "function"
    },
    {
      "inputs": [
        {
          "internalType": "address",
          "name": "tokenAddress",
          "type": "address"
        },
        {
          "internalType": "uint256",
          "name": "amount",
          "type": "uint256"
        }
      ],
      "name": "rescueTokens",
      "outputs": [],
      "stateMutability": "nonpayable",
      "type": "function"
    },
    {
      "inputs": [
        {
          "internalType": "address",
          "name": "account",
          "type": "address"
        },
        {
          "internalType": "bool",
          "name": "excluded",
          "type": "bool"
        }
      ],
      "name": "setExcludedFromFee",
      "outputs": [],
      "stateMutability": "nonpayable",
      "type": "function"
    },
    {
      "inputs": [],
      "name": "symbol",
      "outputs": [
        {
          "internalType": "string",
          "name": "",
          "type": "string"
        }
      ],
      "stateMutability": "view",
      "type": "function"
    },
    {
      "inputs": [
        {
          "internalType": "uint256",
          "name": "reflectionAmount",
          "type": "uint256"
        }
      ],
      "name": "tokenFromReflection",
      "outputs": [
        {
          "internalType": "uint256",
          "name": "",
          "type": "uint256"
        }
      ],
      "stateMutability": "view",
      "type": "function"
    },
    {
      "inputs": [],
      "name": "totalSupply",
      "outputs": [
        {
          "internalType": "uint256",
          "name": "",
          "type": "uint256"
        }
      ],
      "stateMutability": "view",
      "type": "function"
    },
    {
      "inputs": [
        {
          "internalType": "address",
          "name": "to",
          "type": "address"
        },
        {
          "internalType": "uint256",
          "name": "value",
          "type": "uint256"
        }
      ],
      "name": "transfer",
      "outputs": [
        {
          "internalType": "bool",
          "name": "",
          "type": "bool"
        }
      ],
      "stateMutability": "nonpayable",
      "type": "function"
    },
    {
      "inputs": [
        {
          "internalType": "address",
          "name": "from",
          "type": "address"
        },
        {
          "internalType": "address",
          "name": "to",
          "type": "address"
        },
        {
          "internalType": "uint256",
          "name": "value",
          "type": "uint256"
        }
      ],
      "name": "transferFrom",
      "outputs": [
        {
          "internalType": "bool",
          "name": "",
          "type": "bool"
        }
      ],
      "stateMutability": "nonpayable",
      "type": "function"
    },
    {
      "inputs": [
        {
          "internalType": "address",
          "name": "newOwner",
          "type": "address"
        }
      ],
      "name": "transferOwnership",
      "outputs": [],
      "stateMutability": "nonpayable",
      "type": "function"
    },
    {
      "inputs": [
        {
          "internalType": "address",
          "name": "_newWallet",
          "type": "address"
        }
      ],
      "name": "updateDonationWallet",
      "outputs": [],
      "stateMutability": "nonpayable",
      "type": "function"
    },
    {
      "inputs": [
        {
          "internalType": "address",
          "name": "_newWallet",
          "type": "address"
        }
      ],
      "name": "updateLiquidityWallet",
      "outputs": [],
      "stateMutability": "nonpayable",
      "type": "function"
    },
    {
      "inputs": [
        {
          "internalType": "uint256",
          "name": "_reflectionTax",
          "type": "uint256"
        },
        {
          "internalType": "uint256",
          "name": "_donationTax",
          "type": "uint256"
        },
        {
          "internalType": "uint256",
          "name": "_liquidityTax",
          "type": "uint256"
        }
      ],
      "name": "updateTaxes",
      "outputs": [],
      "stateMutability": "nonpayable",
      "type": "function"
    },
    {
      "inputs": [],
      "name": "withdrawETH",
      "outputs": [],
      "stateMutability": "nonpayable",
      "type": "function"
    },
    {
      "stateMutability": "payable",
      "type": "receive"
    }
  ],
  "bytecode": "0x608060405260c860075560c860085560c86009553480156200002057600080fd5b5060405162001b7e38038062001b7e833981016040819052620000439162000329565b3360405180604001604052806008815260200167424d424c414e434560c01b815250604051806040016040528060048152602001631093509360e21b815250816003908162000093919062000406565b506004620000a2828262000406565b5050506001600160a01b038116620000d557604051631e4fbdf760e01b8152600060048201526024015b60405180910390fd5b620000e081620002ba565b5060016006556001600160a01b0382166200013e5760405162461bcd60e51b815260206004820152601760248201527f496e76616c696420646f6e6174696f6e2077616c6c65740000000000000000006044820152606401620000cc565b6001600160a01b038116620001965760405162461bcd60e51b815260206004820152601860248201527f496e76616c6964206c69717569646974792077616c6c657400000000000000006044820152606401620000cc565b600a80546001600160a01b038085166001600160a01b031992831617909255600b805492841692909116919091179055620001cf601290565b620001dc90600a620005e7565b620001ed9064e8d4a51000620005ff565b6010819055620002009060001962000619565b6200020e906000196200063c565b6011819055336000818152600c6020908152604080832094909455600e81528382208054600160ff1991821681179092553084528584208054821683179055600a546001600160a01b0390811685528685208054831684179055600b54168452858420805490911690911790556010549351938452919290917fddf252ad1be2c89b69c2b068fc378daa952ba7f163c4a11628f55a4df523b3ef910160405180910390a3505062000652565b600580546001600160a01b038381166001600160a01b0319831681179093556040519116919082907f8be0079c531659141344cd1fd0a4f28419497f9722a3daafe3b4186f6b6457e090600090a35050565b80516001600160a01b03811681146200032457600080fd5b919050565b600080604083850312156200033d57600080fd5b62000348836200030c565b915062000358602084016200030c565b90509250929050565b634e487b7160e01b600052604160045260246000fd5b600181811c908216806200038c57607f821691505b602082108103620003ad57634e487b7160e01b600052602260045260246000fd5b50919050565b601f8211156200040157600081815260208120601f850160051c81016020861015620003dc5750805b601f850160051c820191505b81811015620003fd57828155600101620003e8565b5050505b505050565b81516001600160401b0381111562000422576200042262000361565b6200043a8162000433845462000377565b84620003b3565b602080601f831160018114620004725760008415620004595750858301515b600019600386901b1c1916600185901b178555620003fd565b600085815260208120601f198616915b82811015620004a35788860151825594840194600190910190840162000482565b5085821015620004c25787850151600019600388901b60f8161c191681555b5050505050600190811b01905550565b634e487b7160e01b600052601160045260246000fd5b600181815b80851115620005295781600019048211156200050d576200050d620004d2565b808516156200051b57918102915b93841c9390800290620004ed565b509250929050565b6000826200054257506001620005e1565b816200055157506000620005e1565b81600181146200056a5760028114620005755762000595565b6001915050620005e1565b60ff841115620005895762000589620004d2565b50506001821b620005e1565b5060208310610133831016604e8410600b8410161715620005ba575081810a620005e1565b620005c68383620004e8565b8060001904821115620005dd57620005dd620004d2565b0290505b92915050565b6000620005f860ff84168362000531565b9392505050565b8082028115828204841417620005e157620005e1620004d2565b6000826200063757634e487b7160e01b600052601260045260246000fd5b500690565b81810381811115620005e157620005e1620004d2565b61151c80620006626000396000f3fe6080604052600436106101a05760003560e01c806370a08231116100ec578063d46980161161008a578063e37ba8f911610064578063e37ba8f9146104b0578063e7b94df4146104d0578063f2e76c25146104f0578063f2fde38b1461051057600080fd5b8063d469801614610435578063dd62ed3e14610455578063e086e5ec1461049b57600080fd5b80638da5cb5b116100c65780638da5cb5b146103b857806395d89b41146103ea578063a9059cbb146103ff578063be617fa01461041f57600080fd5b806370a082311461036d578063715018a61461038d57806386a35f25146103a257600080fd5b80632d8381191161015957806342966c681161013357806342966c68146102d45780635342acb4146102f4578063573761981461032d5780636612e66f1461034d57600080fd5b80632d83811914610282578063313ce567146102a25780633ae2f354146102be57600080fd5b806306fdde03146101ac578063095ea7b3146101d75780630a5b298f1461020757806318160ddd1461022b57806323b872dd146102405780632a088da61461026057600080fd5b366101a757005b600080fd5b3480156101b857600080fd5b506101c1610530565b6040516101ce9190611272565b60405180910390f35b3480156101e357600080fd5b506101f76101f23660046112dc565b6105c2565b60405190151581526020016101ce565b34801561021357600080fd5b5061021d60085481565b6040519081526020016101ce565b34801561023757600080fd5b5060105461021d565b34801561024c57600080fd5b506101f761025b366004611306565b6105dc565b34801561026c57600080fd5b5061028061027b366004611342565b610600565b005b34801561028e57600080fd5b5061021d61029d36600461135d565b6106c4565b3480156102ae57600080fd5b50604051601281526020016101ce565b3480156102ca57600080fd5b5061021d60075481565b3480156102e057600080fd5b506102806102ef36600461135d565b610748565b34801561030057600080fd5b506101f761030f366004611342565b6001600160a01b03166000908152600e602052604090205460ff1690565b34801561033957600080fd5b506102806103483660046112dc565b610755565b34801561035957600080fd5b50610280610368366004611384565b61084c565b34801561037957600080fd5b5061021d610388366004611342565b6108b7565b34801561039957600080fd5b50610280610916565b3480156103ae57600080fd5b5061021d6103e881565b3480156103c457600080fd5b506005546001600160a01b03165b6040516001600160a01b0390911681526020016101ce565b3480156103f657600080fd5b506101c161092a565b34801561040b57600080fd5b506101f761041a3660046112dc565b610939565b34801561042b57600080fd5b5061021d60095481565b34801561044157600080fd5b50600b546103d2906001600160a01b031681565b34801561046157600080fd5b5061021d6104703660046113bb565b6001600160a01b03918216600090815260016020908152604080832093909416825291909152205490565b3480156104a757600080fd5b50610280610947565b3480156104bc57600080fd5b506102806104cb366004611342565b61099b565b3480156104dc57600080fd5b50600a546103d2906001600160a01b031681565b3480156104fc57600080fd5b5061028061050b3660046113ee565b610a53565b34801561051c57600080fd5b5061028061052b366004611342565b610b0b565b60606003805461053f9061141a565b80601f016020809104026020016040519081016040528092919081815260200182805461056b9061141a565b80156105b85780601f1061058d576101008083540402835291602001916105b8565b820191906000526020600020905b81548152906001019060200180831161059b57829003601f168201915b5050505050905090565b6000336105d0818585610b46565b60019150505b92915050565b6000336105ea858285610b53565b6105f5858585610bd2565b506001949350505050565b610608610c31565b6001600160a01b0381166106555760405162461bcd60e51b815260206004820152600f60248201526e496e76616c6964206164647265737360881b60448201526064015b60405180910390fd5b600a80546001600160a01b0319166001600160a01b0383169081179091556000818152600e6020908152604091829020805460ff1916600117905590519182527f57b1023605a0ac1c359252eae420a9abe1922a805916aaec8d0e90110d28291491015b60405180910390a150565b600060115482111561072b5760405162461bcd60e51b815260206004820152602a60248201527f416d6f756e74206d757374206265206c657373207468616e20746f74616c207260448201526965666c656374696f6e7360b01b606482015260840161064c565b6000610735610c5e565b9050610741818461146a565b9392505050565b6107523382610c75565b50565b61075d610c31565b306001600160a01b038316036107b55760405162461bcd60e51b815260206004820152601760248201527f43616e6e6f7420726573637565206f776e20746f6b656e000000000000000000604482015260640161064c565b816001600160a01b031663a9059cbb6107d66005546001600160a01b031690565b6040516001600160e01b031960e084901b1681526001600160a01b039091166004820152602481018490526044016020604051808303816000875af1158015610823573d6000803e3d6000fd5b505050506040513d601f19601f82011682018060405250810190610847919061148c565b505050565b610854610c31565b6001600160a01b0382166000818152600e6020908152604091829020805460ff19168515159081179091558251938452908301527f2d43abd87b27cee7b0aa8c6f7e0b4a3247b683262a83cbc2318b0df398a49aa9910160405180910390a15050565b6001600160a01b0381166000908152600f602052604081205460ff16156108f457506001600160a01b03166000908152600d602052604090205490565b6001600160a01b0382166000908152600c60205260409020546105d6906106c4565b61091e610c31565b6109286000610caf565b565b60606004805461053f9061141a565b6000336105d0818585610bd2565b61094f610c31565b610957610d01565b6005546040516001600160a01b03909116904780156108fc02916000818181858888f19350505050158015610990573d6000803e3d6000fd5b506109286001600655565b6109a3610c31565b6001600160a01b0381166109eb5760405162461bcd60e51b815260206004820152600f60248201526e496e76616c6964206164647265737360881b604482015260640161064c565b600b80546001600160a01b0319166001600160a01b0383169081179091556000818152600e6020908152604091829020805460ff1916600117905590519182527fc0f8ad2683cf240266d4f868f5b59a16c13e4a0ff63dfcfb0f0cd3843a12178491016106b9565b610a5b610c31565b6103e881610a6984866114a9565b610a7391906114a9565b1115610ab65760405162461bcd60e51b81526020600482015260126024820152710a8dee8c2d840e8c2f040e8dede40d0d2ced60731b604482015260640161064c565b60078390556008829055600981905560408051848152602081018490529081018290527fbf599f0b0b785a611d748a0dfabee402e180323c72c9ed973e5cc29d23c992d89060600160405180910390a1505050565b610b13610c31565b6001600160a01b038116610b3d57604051631e4fbdf760e01b81526000600482015260240161064c565b61075281610caf565b6108478383836001610d2b565b6001600160a01b03838116600090815260016020908152604080832093861683529290522054600019811015610bcc5781811015610bbd57604051637dc7a0d960e11b81526001600160a01b0384166004820152602481018290526044810183905260640161064c565b610bcc84848484036000610d2b565b50505050565b6001600160a01b038316610bfc57604051634b637e8f60e11b81526000600482015260240161064c565b6001600160a01b038216610c265760405163ec442f0560e01b81526000600482015260240161064c565b610847838383610e00565b6005546001600160a01b031633146109285760405163118cdaa760e01b815233600482015260240161064c565b6000601054601154610c70919061146a565b905090565b6001600160a01b038216610c9f57604051634b637e8f60e11b81526000600482015260240161064c565b610cab82600083610e00565b5050565b600580546001600160a01b038381166001600160a01b0319831681179093556040519116919082907f8be0079c531659141344cd1fd0a4f28419497f9722a3daafe3b4186f6b6457e090600090a35050565b600260065403610d2457604051633ee5aeb560e01b815260040160405180910390fd5b6002600655565b6001600160a01b038416610d555760405163e602df0560e01b81526000600482015260240161064c565b6001600160a01b038316610d7f57604051634a1406b160e11b81526000600482015260240161064c565b6001600160a01b0380851660009081526001602090815260408083209387168352929052208290558015610bcc57826001600160a01b0316846001600160a01b03167f8c5be1e5ebec7d5bd14f71427d1e84f3dd0314c0f7b2291e5b200ac8c7c3b92584604051610df291815260200190565b60405180910390a350505050565b6001600160a01b038316610e645760405162461bcd60e51b815260206004820152602560248201527f45524332303a207472616e736665722066726f6d20746865207a65726f206164604482015264647265737360d81b606482015260840161064c565b6001600160a01b038216610ec65760405162461bcd60e51b815260206004820152602360248201527f45524332303a207472616e7366657220746f20746865207a65726f206164647260448201526265737360e81b606482015260840161064c565b60008111610f285760405162461bcd60e51b815260206004820152602960248201527f5472616e7366657220616d6f756e74206d7573742062652067726561746572206044820152687468616e207a65726f60b81b606482015260840161064c565b6001600160a01b0383166000908152600e602052604090205460019060ff1680610f6a57506001600160a01b0383166000908152600e602052604090205460ff165b15610f73575060005b808015610f9c57506000600954600854600754610f9091906114a9565b610f9a91906114a9565b115b156110c857600061271060075484610fb491906114bc565b610fbe919061146a565b9050600061271060085485610fd391906114bc565b610fdd919061146a565b9050600061271060095486610ff291906114bc565b610ffc919061146a565b90506000818361100c86896114d3565b61101691906114d3565b61102091906114d3565b9050831561103157611031846110d3565b821561109657600a5461104f9089906001600160a01b031685611109565b600a54604080516001600160a01b039092168252602082018590527f67a9bd2734eac78f1ac30823ea3d8e3c8b2be225836b3a4917ed0c15508f40aa910160405180910390a15b81156110b457600b546110b49089906001600160a01b031684611109565b6110bf888883611109565b50505050610bcc565b610bcc848484611109565b60006110dd610c5e565b905060006110eb82846114bc565b905080601160008282546110ff91906114d3565b9091555050505050565b6000611113610c5e565b9050600061112182846114bc565b6001600160a01b0386166000908152600c602052604081208054929350839290919061114e9084906114d3565b90915550506001600160a01b0384166000908152600c60205260408120805483929061117b9084906114a9565b90915550506001600160a01b0385166000908152600f602052604090205460ff16156111cf576001600160a01b0385166000908152600d6020526040812080548592906111c99084906114d3565b90915550505b6001600160a01b0384166000908152600f602052604090205460ff161561121e576001600160a01b0384166000908152600d6020526040812080548592906112189084906114a9565b90915550505b836001600160a01b0316856001600160a01b03167fddf252ad1be2c89b69c2b068fc378daa952ba7f163c4a11628f55a4df523b3ef8560405161126391815260200190565b60405180910390a35050505050565b600060208083528351808285015260005b8181101561129f57858101830151858201604001528201611283565b506000604082860101526040601f19601f8301168501019250505092915050565b80356001600160a01b03811681146112d757600080fd5b919050565b600080604083850312156112ef57600080fd5b6112f8836112c0565b946020939093013593505050565b60008060006060848603121561131b57600080fd5b611324846112c0565b9250611332602085016112c0565b9150604084013590509250925092565b60006020828403121561135457600080fd5b610741826112c0565b60006020828403121561136f57600080fd5b5035919050565b801515811461075257600080fd5b6000806040838503121561139757600080fd5b6113a0836112c0565b915060208301356113b081611376565b809150509250929050565b600080604083850312156113ce57600080fd5b6113d7836112c0565b91506113e5602084016112c0565b90509250929050565b60008060006060848603121561140357600080fd5b505081359360208301359350604090920135919050565b600181811c9082168061142e57607f821691505b60208210810361144e57634e487b7160e01b600052602260045260246000fd5b50919050565b634e487b7160e01b600052601160045260246000fd5b60008261148757634e487b7160e01b600052601260045260246000fd5b500490565b60006020828403121561149e57600080fd5b815161074181611376565b808201808211156105d6576105d6611454565b80820281158282048414176105d6576105d6611454565b818103818111156105d6576105d661145456fea26469706673582212201f3ddd28ee6cc28d1acab8c8b90ba278988101187fa470e9f8a822e1ec20b5b964736f6c63430008140033",
  "linkReferences": {},
  "deployedLinkReferences": {}
}